:020000040000FA
:10000000500ED36E7E6A7F6A946A826A8B6A816AB6
:100010008A6A936A0C0EBD6E140EBE6EBF6AB76A12
:10002000400ECB6E010EB96E250ECA6E550E006ED7
:100030008B9000000000000000B022EF00F08B92D7
:1000400023EF00F08B820000000000008B80000096
:10005000000000008B9000000000000000B234EFB0
:1000600000F08B9235EF00F08B8200000000000062
:100070008B800000000000008B900000000000005A
:1000800000B446EF00F08B9247EF00F08B82000047
:10009000000000008B800000000000008B9000003A
:1000A0000000000000B658EF00F08B9259EF00F00E
:1000B0008B820000000000008B8000000000000028
:1000C0008B9000000000000000B86AEF00F08B92F7
:1000D0006BEF00F08B820000000000008B800000BE
:1000E000000000008B9000000000000000BA7CEFD0
:1000F00000F08B927DEF00F08B820000000000008A
:100100008B800000000000008B90000000000000C9
:1001100000BC8EEF00F08B928FEF00F08B8200001E
:10012000000000008B800000000000008B900000A9
:100130000000000000BEA0EF00F08B92A1EF00F0E5
:100140008B820000000000008B8000000000000097
:10015000BE2A002A640E016E640E026E00000000CA
:100160000000023EAEEF00F0013EACEF00F018EFF1
:0201700000F09D
:020000040030CA
:0E0000000008191A0000800003C0030003402E
:00000001FF
