:020000040000FA
:10000000500ED36E7E6A7F6A946A826A8B6A816AB6
:100010008A6A936A0C0EBD6E140EBE6EBF6AB76A12
:10002000CB68010EB96E240ECA6E550E006E8B9011
:1000300000000000000000B021EF00F08B9222EFE2
:1000400000F08B820000000000008B8000000000A8
:1000500000008B9000000000000000B233EF00F0C1
:100060008B9234EF00F08B820000000000008B8048
:100070000000000000008B9000000000000000B4B1
:1000800045EF00F08B9246EF00F08B8200000000FD
:1000900000008B800000000000008B90000000003A
:1000A000000000B657EF00F08B9258EF00F08B8203
:1000B0000000000000008B800000000000008B901A
:1000C00000000000000000B869EF00F08B926AEFBA
:1000D00000F08B820000000000008B800000000018
:1000E00000008B9000000000000000BA7BEF00F0E1
:1000F0008B927CEF00F08B820000000000008B8070
:100100000000000000008B9000000000000000BC18
:100110008DEF00F08B928EEF00F08B8200000000DC
:1001200000008B800000000000008B9000000000A9
:10013000000000BE9FEF00F08B92A0EF00F08B82DA
:100140000000000000008B80000000000000BE2ABC
:10015000002A640E016E640E026E000000000000B2
:10016000023EADEF00F0013EABEF00F017EF00F004
:020000040030CA
:0E0000000008191A0000800003C0030003402E
:00000001FF
